:020000040800F2
:10000000C8030020D1460008ED460008F14600086C
:10001000F5460008F9460008FD460008000000000B
:100020000000000000000000000000000147000880
:10003000054700080000000009470008D530000807
:100040000D47000811470008154700087F230008E6
:10005000194700081D4700082147000825470008E8
:10006000294700082D470008314700083547000898
:10007000BB3B0008394700083D47000841470008DE
:1000800045470008494700084D4700085147000808
:1000900055470008594700085D47000861470008B8
:1000A00065470008BF340008694700086D4700082D
:1000B00071470008F31B00087547000879470008DE
:1000C0007D470008814700088547000889470008E8
:1000D000551B00088D470008914700089547000808
:1000E000994700089D470008A1470008C0B20A21AF
:1000F00090FBF1F0C0B27047C0B20A2190FBF1F260
:1001000001FB1200C0B2704738B504000D00207822
:100110000A2808DB2078FFF7E9FF0100C9B20020B8
:1001200001F01FFF03E00A21002001F01AFF2078F0
:10013000FFF7E2FF0100C9B2012001F012FFEDB2AA
:10014000002D01D00B2100E00A21C9B2022001F0EC
:1001500008FF6078FFF7CAFF0100C9B2032001F071
:1001600000FF6078FFF7C8FF0100C9B2042001F06A
:10017000F8FE0A21052001F0F4FE31BD70B50C0037
:100180000025002601F09AFF060076B2002E02D567
:10019000012576B27642E4B2002C04D00C21002076
:1001A00001F0DFFE03E00D21002001F0DAFE0A215C
:1001B000012001F0D6FE76B20A2E20DBEDB2002D32
:1001C00001D00B2100E00A21C9B2022001F0C9FED2
:1001D0003000C0B2FFF78AFF0100C9B2032001F06E
:1001E000C0FE3000C0B2FFF787FF0100C9B2042093
:1001F00001F0B7FE0E21052001F0B3FE1AE00A213E
:10020000022001F0AEFEEDB2002D01D00B2100E086
:100210000A21C9B2032001F0A4FE3000C0B2FFF7EA
:100220006BFF0100C9B2042001F09BFE0E210520E6
:1002300001F097FE70BD10B504000A21002001F006
:1002400090FE20780A2808DB2078FFF74FFF010096
:10025000C9B2012001F085FE03E00A21012001F06E
:1002600080FE2078FFF748FF0100C9B2022001F0AC
:1002700078FE0B21032001F074FE6078FFF736FF53
:100280000100C9B2042001F06CFE6078FFF734FF72
:100290000100C9B2052001F064FE10BD70B5040074
:1002A0000D0016000A21002001F05BFEF6B2002EC0
:1002B00028D02000C0B2FFF719FF0100C9B2012009
:1002C00001F04FFE2000C0B2FFF716FF0100C9B2D7
:1002D000022001F046FE0B21032001F042FE28001F
:1002E000C0B2FFF703FF0100C9B2042001F039FEDC
:1002F0002800C0B2FFF700FF0100C9B2052001F0DD
:1003000030FE13E00B21012001F02BFE0B21022017
:1003100001F027FE0B21032001F023FE0B21042016
:1003200001F01FFE0B21052001F01BFE70BD10B572
:100330000400641C0F21002001F013FE0A2101209B
:1003400001F00FFE0A21022001F00BFE0A2103201A
:1003500001F007FEE4B20A2C09DB2000C0B2FFF76F
:10036000C5FE0100C9B2042001F0FBFD03E00A2133
:10037000042001F0F6FD2000C0B2FFF7BDFE010031
:10038000C9B2052001F0EDFD10BD38B5040000250F
:1003900064B2002C02D5012564B264421021002011
:1003A00001F0DFFD1021012001F0DBFD0A21022018
:1003B00001F0D7FD64B20A2C1EDBEDB2002D04D093
:1003C0000B21032001F0CDFD03E00A21032001F001
:1003D000C8FD2000C0B2FFF789FE0100C9B20420A9
:1003E00001F0BFFD2000C0B2FFF786FE0100C9B2D8
:1003F000052001F0B6FD18E00A21032001F0B1FD4F
:10040000EDB2002D04D00B21042001F0AAFD03E081
:100410000A21042001F0A5FD2000C0B2FFF76CFE08
:100420000100C9B2052001F09CFD31BD10B50400EA
:100430001421002001F095FD0A21012001F091FD19
:10044000E4B2002C10D10F21022001F08AFD11210D
:10045000032001F086FD1221042001F082FD13210A
:10046000052001F07EFD32E0E4B20A2C1ADB0A21FD
:10047000022001F076FD0A21032001F072FD200028
:10048000C0B2FFF733FE0100C9B2042001F069FDDC
:100490002000C0B2FFF730FE0100C9B2052001F014
:1004A00060FD14E00A21022001F05BFD0A21032017
:1004B00001F057FD0A21042001F053FD2000C0B2D5
:1004C000FFF71AFE0100C9B2052001F04AFD10BD78
:1004D00070B504000D001600DBB2002B08D1152109
:1004E000002001F03EFD0A21012001F03AFD13E059
:1004F000DBB2012B08D11621002001F032FD0A21C8
:10050000012001F02EFD07E00F21002001F029FD60
:100510001621012001F025FD0A21022001F021FD14
:100520002100C9B2032001F01CFD2900C9B204203A
:1005300001F017FD3100C9B2052001F012FD70BDB8
:1005400080B53F2001F037FD01BD80B5012001F0ED
:100550002BFD3E2001F02FFD01BD80B53F2001F0B5
:100560002AFD022001F020FD01BD80B53F2001F0F1
:1005700022FD042001F018FD01BD80B53F2001F0EF
:100580001AFD082001F010FD01BD80B53F2001F0EB
:1005900012FD102001F008FD01BD80B53F2001F0E3
:1005A0000AFD202001F000FD01BD80B501F0F4FC42
:1005B000022001F0E2FC042001F0DFFC01BD80B567
:1005C00001F0EAFC102001F0D8FC202001F0D5FC5D
:1005D00001BD80B501F0E0FC022001F0CEFC04205A
:1005E00001F0CBFC082001F0C8FC102001F0C5FC94
:1005F000202001F0C2FC01BD80B501F0CDFC02203D
:1006000001F0BBFC042001F0B8FC01BD80B501F095
:10061000C3FC102001F0B1FC202001F0AEFC01BDB4
:1006200080B501F0B9FC102001F0A7FC202001F0FA
:10063000A4FC01BD80B501F0AFFC042001F09DFCDD
:10064000082001F09AFC102001F097FC202001F016
:1006500094FC01BD80B501F09FFC082001F08DFCE9
:10066000102001F08AFC202001F087FC01BD80B53C
:1006700001F092FC082001F080FC01BD80B501F082
:100680008BFC102001F079FC01BD80B501F084FCE9
:10069000202001F072FC01BD80B58178002940D195
:1006A000417800293DD1DFF890148978002938D0AD
:1006B000DFF884140978DFF880245278914205D15C
:1006C000DFF87414C97A00F04BF82AE0DFF86814F8
:1006D0000978DFF864245278914211D20178DFF86A
:1006E0005824127891421CD3DFF84C1449780278D0
:1006F000914216D3DFF84014C97A00F031F810E0C7
:100700000178DFF834241278914205D2DFF82814FA
:1007100049780278914204D3DFF81C14C97A00F0BA
:100720001FF801BD80B501F0D0FD002817D0DFF81B
:100730000804C07901F091FE002805D0DFF8FC1311
:10074000B1FBF0F0401C00E00A200100DFF8E803F4
:10075000C07902F05CF80120DFF8E413087001BDF5
:1007600010B582B00400C9B2002904D161782078A4
:1007700001F0ABFF45E0C9B2012921D1012002F00F
:10078000C9FB10F1010F16D0012002F0BBFB01F0F4
:1007900095FC40B2002803D5012340B2404200E05E
:1007A000002301210091DBB20200D2B261782078EF
:1007B00001F06DFE25E06178207801F086FF20E0F1
:1007C000002002F0A7FB10F1010F16D0002002F06C
:1007D00099FB01F073FC40B2002803D5012340B21D
:1007E000404200E0002300210091DBB20200D2B2BF
:1007F0006178207801F04BFE03E06178207801F009
:1008000064FF13BD80B5017816290DD141783929CF
:100810000AD181781E2907D1DFF828030078401C0F
:10082000DFF82013087018E00178172915D14178F6
:10083000392912D181781E290FD1DFF808130978E0
:100840000A290ADB0021BF4A11708178BA4A92F95D
:1008500008205118817001F0DCFC01BD0378D2B290
:10086000934203D20178491C017000E00170704787
:100870000378C9B2994203D20178491E017000E0A1
:10088000027070470278C9B28A4202D20178491CCC
:10089000017070470278C9B2914202D20178491EB4
:1008A0000170704790F9002049B28A4202DA01785B
:1008B000491C0170704790F9002049B2914202DA58
:1008C0000178491E0170704710B50400080011003E
:1008D000DBB2002B09D000209B49087001209B4906
:1008E000087000209A490870F2E0984A1278964BF6
:1008F0001B789A4203D00122954B1A7002E0002225
:10090000934B1A70904A1278904B1A708E4A127854
:10091000002A0FD0022A38D030D3042A62D044D320
:10092000062A00F08C806DD3082A00F0B580C0F054
:100930009680CDE08048407A002803D1012082498A
:1009400008701AE07C48407A012803D102207E49D1
:10095000087012E07848407A022803D104207A49CE
:1009600008700AE07448407A032803D106207649CB
:10097000087002E0012074490870A9E0C9B2FFF7CD
:10098000C3FB002070490870A2E0714A1278002A67
:1009900001D000222280C9B2FFF7B6FB20880528CB
:1009A00002DB03206849087092E06948007800285B
:1009B00001D000202080012002F0ACFA10F1010FDC
:1009C00006D0012002F09EFA0021FFF7D7FB02E0DB
:1009D00000205D4908702088022802DB00205A4967
:1009E000087075E05A4A1278002A01D0002222804D
:1009F000C9B2FFF789FB2088052802DB0520524990
:100A0000087065E052480078002801D0002020805E
:100A1000002002F07FFA10F1010F06D0002002F052
:100A200071FA0121FFF7AAFB02E000204649087095
:100A30002088022802DB00204349087048E0444A2D
:100A40001278002A01D000222280C9B2FFF75CFB95
:100A50002088052802DB07203B49087038E03C4825
:100A60000078002801D000202080012002F052FAF6
:100A700010F1010F06D0012002F044FA0021FFF727
:100A80007DFB02E00820304908702088022802DB44
:100A900008202D4908701BE02D480078002801D05F
:100AA00000202080002002F035FA10F1010F06D05E
:100AB000002002F027FA0121FFF760FB02E000208E
:100AC000214908702088022802DB00201E49087096
:100AD00010BD80B500201F4908701E480078401CDA
:100AE0001D49087001201D49087000201C4908702C
:100AF00000201449087002F05FFA1A48007801F0EB
:100B000062FA0D4802F07AFA0B480079164908702B
:100B100009484079144948700020134988701248E8
:100B200001F0DEFB04488079002802D001F005FCCA
:100B300001E001F006FC01BD24080020D8EF6400AC
:100B40007F0800208408002085080020C1020020C2
:100B500086080020800800208108002082080020EC
:100B600083080020C00200203C08002010B5DFF8F8
:100B7000740B0078DFF8701B0978884204D00120DC
:100B8000DFF8681B087003E00020DFF8601B0870C6
:100B9000DFF8540B0078DFF84C1B087001F023FAE3
:100BA0000400E4B2002C02D0022002F082FADFF846
:100BB000380B0078001F11280DD2022002F069FACC
:100BC00041F27071884206D31620DFF81C1B0870B2
:100BD000022002F06EFA01F0ADFB002803D04020A5
:100BE00001F0E2F902E0402001F0E5F9DFF83C0D08
:100BF0000078002812D001F040FC002804D000202A
:100C0000DFF8281D087009E0E4B2002C06D001F0DE
:100C1000F6FD0020DFF8141D08700024DFF8C80A74
:100C20000078002802D0042002F043FADFF8000D1B
:100C30000078002803D002284CD02ED363E002F0C5
:100C4000DBF900280AD1042002F033FA082001F071
:100C5000BAF90120DFF8D81C08701DE0DFF8D40CC9
:100C6000C078002813D102F02CFBC0B2022803D1B7
:100C7000112001F0A8F90FE0C0B2012803D105202E
:100C800001F0A1F908E0002001F09DF904E0DFF88F
:100C9000A40CC07801F097F939E0042002F0F9F9CA
:100CA000B0F5FA7F06D301F096F90220DFF8801C38
:100CB00008700EE002F0A0F9002804D00020DFF850
:100CC000701C087005E0E4B2002C02D0042002F091
:100CD000F0F91CE002F090F9002806D001F07FF94D
:100CE0000020DFF84C1C08700CE0E4B2002C09D0A6
:100CF000002401F074F9042002F0DBF90120DFF890
:100D0000301C087003E00020DFF8241C087001F09C
:100D1000D1FA002815D0DFF8200C01F05FFA01208D
:100D2000DFF8181C0870DFF8180C0088401CDFF88A
:100D3000101C0880DFF8000CFFF764FD032002F0B0
:100D4000B8F9032002F0A5F9322803D30020DFF818
:100D5000EC1B0870DFF89009007800283DD00128CE
:100D600000F08C80022800F0C080042800F0EF80A2
:100D7000052800F00881062800F02A81072800F0E5
:100D80006A81082800F0C481092800F0C7810A2878
:100D900000F016820B2800F06A820C2800F0D08246
:100DA0000D2800F02E830E2800F08B830F2800F012
:100DB0000A84102800F05F84112800F0B284122801
:100DC00000F0B384132800F00385142800F0538545
:100DD000162800F0A38500F0A5BDDFF81009007803
:100DE000002814D03F2001F0CFF801F00CF9DFF813
:100DF000480B01F0F3F90020DFF8441B0880FFF7EF
:100E00009FFB0123002200210020FFF75DFDDFF89A
:100E1000280BFFF741FCFFF785FC0023DFF81C0BD4
:100E20000278DFF8141BDFF8180BFFF74DFDE4B272
:100E3000042C04D10820DFF8B01808701CE0E4B2DC
:100E4000032C04D10120DFF8A018087014E0E4B2EC
:100E5000022C11D0E4B2012C07D1DFF8D80A817A34
:100E6000DFF8D40AFFF77CFC06E0E4B2052C03D1DE
:100E70000420DFF87418087000F057BDDFF86C0824
:100E80000078002803D00020DFF8B41A0880012081
:100E900002F040F810F1010F06D0012002F032F804
:100EA0000021FFF76BF903E00220DFF83C1808701F
:100EB000DFF88C0A0088032803DB0020DFF82818FD
:100EC0000870E4B2032C04D10220DFF81C1808706B
:100ED00009E0E4B2052C02D0E4B2042C03D10020D6
:100EE000DFF80418087000F020BDDFF80008007873
:100EF000002803D00020DFF8481A0880002002F004
:100F000009F810F1010F06D0002001F0FBFF0121CC
:100F1000FFF734F903E00020DFF8CC170870DFF8A2
:100F2000200A0088032803DB0020DFF8BC170870C4
:100F3000E4B2052C05D0E4B2042C02D0E4B2032CB8
:100F400003D10020DFF8A017087000F0EEBC01F01C
:100F5000F1F9002806D001F0F4F91620DFF888171F
:100F6000087005E001F0E9F90520DFF87C1708704A
:100F700001F0E0F9DFF8BC198871DFF8B80902F078
:100F800061F800F0D2BCDFF864070078002806D0D2
:100F9000DFF8B00901F0B3F9012002F08AF8DFF8B8
:100FA000A409FFF748F9012002F073F8C82803D319
:100FB0001620DFF834170870E4B2042C02D0E4B233
:100FC000052C03D10620DFF82017087000F0ADBC17
:100FD000DFF81807007800280DD0FFF7E6FA0020A8
:100FE000DFF86419087001F00EF8032001F002F830
:100FF000022000F0FFFFDFF84C09FFF71CF9E4B214
:10100000042C02D0E4B2052C04D10720DFF8D81656
:1010100008701EE0E4B2032C0CD117220021DFF887
:101020002409FFF71BFC0120DFF81C19087000F0F1
:10103000B7FF0EE0E4B2022C0BD117220021DFF83B
:101040000409FFF715FC0120DFF8FC18087000F018
:10105000A7FF00F06ABCDFF894060078002809D0EA
:1010600000F0D1FF032000F0C5FF022000F0C2FF16
:10107000FFF7A5FADFF8CC08FFF7DDF8E4B2042C9F
:1010800002D0E4B2052C22D1DFF8BC080078002899
:1010900018D0DFF8B00801F023F9DFF8A8080078CD
:1010A000DFF890180871DFF89C084078DFF88418A2
:1010B000487101F03FF9DFF87C188871DFF8740897
:1010C00001F0C0FF1620DFF8201608701EE0E4B221
:1010D000032C0CD13B220021DFF87008FFF7BEFB88
:1010E0000120DFF86418087000F05AFF0EE0E4B247
:1010F000022C0BD13B220021DFF85008FFF7B8FB90
:101100000120DFF84418087000F04AFF00F00DBC21
:101110000920DFF8D415087000F007BCDFF8CC0513
:101120000078002817D0DFF81C0801F057F80020DD
:10113000DFF814180870012000F01FFF022000F0F3
:101140001CFF00F060FF032000F054FF022000F0BD
:1011500051FFFFF7FAF90121DFF8E807FEF7D4FFA6
:10116000E4B2032C0CD10120DFF8DC170870172241
:101170000021DFF8D007FFF771FB00F011FF1EE040
:10118000E4B2022C0CD10120DFF8BC17087000F08B
:1011900007FF17220021DFF8AC07FFF769FB0EE01D
:1011A000E4B2042C04D10A20DFF83C15087006E0F4
:1011B000E4B2052C03D11620DFF82C150870B4E337
:1011C000DFF82805007800280FD000F0E5FE0820A1
:1011D00000F0D3FE102000F0D0FE00F014FF03203A
:1011E00000F008FF022000F005FF0121DFF854079E
:1011F000FEF78AFFE4B2032C0CD10120DFF8481778
:10120000087000F0CDFE3B220021DFF84007FFF719
:1012100025FB2BE0E4B2022C0CD10120DFF82817CB
:10122000087000F0BDFE3B220021DFF82007FFF729
:101230001FFB1BE0E4B2042C11D1DFF80C0700788F
:10124000002807D00020DFF8FC168870DFF8F406CD
:1012500000F0DFFF0B20DFF89014087006E0E4B226
:10126000052C03D11620DFF8801408705DE3DFF849
:101270007C04007800280FD0FFF76FF9FFF7A9F979
:1012800000F0C1FE0020DFF8C0160870DFF8A406E9
:101290008078DFF8BC160870DFF8B4060278DFF853
:1012A00094064178DFF88C060078FEF7F7FFE4B289
:1012B000032C0CD10120DFF89016087000F070FEAE
:1012C00001220021DFF88806FFF7C8FA37E0E4B210
:1012D000022C0CD10120DFF87016087000F060FEBF
:1012E00001220021DFF86806FFF7C2FA27E0E4B226
:1012F000042C1DD1DFF850060078002809D0DFF853
:1013000050060078DFF82C168870DFF8280601F008
:1013100099FEDFF820068078002804D00C20DFF842
:10132000C81308700BE00E20DFF8BC13087006E04D
:10133000E4B2052C03D11620DFF8AC130870F4E2F8
:10134000DFF8A8030078002813D0FFF755F900F064
:101350005AFE032000F04EFE022000F04BFE00205B
:10136000DFF8E4150870DFF8CC050078DFF8E01549
:101370000870DFF8C0058278DFF8B8054178DFF83B
:10138000D0050078FEF78AFFE4B2032C0CD10120CF
:10139000DFF8B415087000F003FE17220021DFF813
:1013A000B005FFF75BFA2BE0E4B2022C0CD1012070
:1013B000DFF89415087000F0F3FD17220021DFF824
:1013C0009005FFF755FA1BE0E4B2042C12D1DFF8C8
:1013D00078050078002809D0DFF874050078DFF878
:1013E00054150870DFF84C0501F02CFE0D20BE49A5
:1013F000087005E0E4B2052C02D11620BA49087045
:1014000093E2BA480078002813D0FFF7FFF800F005
:10141000FAFD032000F0EEFD022000F0EBFD0020BD
:10142000DFF824150870DFF80C054078DFF8201588
:101430000870DFF800058278DFF814050178DFF81E
:10144000F4040078FEF72AFFE4B2032C0CD101204B
:10145000DFF8F414087000F0A3FD17220021DFF874
:10146000F004FFF7FBF92BE0E4B2022C0CD10120D1
:10147000DFF8D414087000F093FD17220021DFF884
:10148000D004FFF7F5F91BE0E4B2042C12D1DFF829
:10149000B8040078002809D0DFF8B4040078DFF839
:1014A00094144870DFF88C0401F0CCFD0E208E49B6
:1014B000087005E0E4B2052C02D116208A490870B4
:1014C00033E28A480078002815D000F09CFD032004
:1014D00000F090FD022000F08DFDFFF7A1F8FFF76E
:1014E00044F80020DFF860140870DFF84804C07981
:1014F000DFF85C140870DFF858040078FEF717FF77
:1015000000F0BBFF002802D1022001F0D2FDE4B2BE
:10151000032C11D101F073F90120DFF82C140870AD
:1015200000F03EFD00F095FF421ED2B20021DFF830
:101530002004FFF793F945E0E4B2022C11D101F049
:101540005EF90120DFF80014087000F029FD00F0BA
:1015500080FF421ED2B20021DFF8F403FFF788F9C2
:1015600030E0E4B2042C14D1DFF8DC03007800286A
:1015700009D0DFF8DC030078DFF8B813C871DFF8B2
:10158000B40301F05FFD01F03AF90F2056490870ED
:1015900018E0E4B2052C05D101F031F916205249CA
:1015A00008700FE0E4B2012C0CD100F066FF0028B7
:1015B00006D00121DFF89803007801F028F901E056
:1015C00001F01DF9B1E149480078002815D000F07C
:1015D0001AFD032000F00EFD022000F00BFDFFF7C6
:1015E00029F8FEF7CAFF0020DFF85C130870DFF867
:1015F0004403C078DFF858130870DFF8540300780C
:10160000FEF714FFE4B2032C0BD10120DFF83813EE
:10161000087000F0C5FC1121DFF83403FFF732F940
:1016200028E0E4B2022C0BD10120DFF81C13087073
:1016300000F0B6FC0021DFF81803FFF72BF919E0E2
:10164000E4B2042C10D1DFF800030078002807D0A2
:10165000DFF8FC020078B749C870B64801F0F2FC28
:1016600010202149087005E0E4B2052C02D11620B3
:101670001D49087059E11D480078002812D000F07B
:10168000C2FC032000F0B6FC022000F0B3FCFEF721
:101690007CFFFEF7DFFF0020AB490870A548007A09
:1016A000AC490870AB4890F90000FEF76EFEE4B25A
:1016B000032C09D10120A449087000F071FC192104
:1016C000A448FFF7EFF82BE0E4B2022C10D1012080
:1016D0009D49087000F064FC7FF018019D48FFF7F9
:1016E000EAF81DE081080020800800208208002020
:1016F000E4B2042C0ED194480078002806D0954816
:1017000000788C4908728B4801F09CFC11209249AA
:10171000087005E0E4B2052C02D116208E4908704D
:1017200003E112208C490870FFE08C480078002803
:1017300012D000F068FC032000F05CFC022000F0F6
:1017400059FCFEF72AFFFEF792FF00207E49087041
:101750007848407A7E49087000237648C27A7548F6
:10176000817A7B480078FEF7B3FEE4B2032C09D1FE
:1017700001207549087000F013FC03217448FFF73D
:1017800081F824E0E4B2022C09D101206E490870EE
:1017900000F006FC00216E48FFF77CF817E0E4B289
:1017A000042C0ED168480078002806D068480078DC
:1017B000604948725F4801F045FC13206649087093
:1017C00005E0E4B2052C02D1162063490870ACE0B4
:1017D00062480078002812D000F015FC032000F0C9
:1017E00009FC022000F006FCFEF7D7FEFEF746FFDC
:1017F0000020554908704F48807A554908700123E8
:101800004C48C27A524801784A48407AFEF760FE56
:10181000E4B2032C09D101204B49087000F0C0FB51
:1018200002214B48FFF72EF824E0E4B2022C09D144
:1018300001204549087000F0B3FB00214448FFF740
:1018400029F817E0E4B2042C0ED13F4800780028B4
:1018500006D03F48007837498872364801F0F2FBDD
:1018600014203D49087005E0E4B2052C02D1162091
:101870003949087059E039480078002812D000F042
:10188000C2FB032000F0B6FB022000F0B3FBFEF722
:1018900084FEFEF7FAFE00202B4908702548C07A26
:1018A0002B49087002232A4802782248817A21486D
:1018B000407AFEF70DFEE4B2032C09D10120224943
:1018C000087000F06DFB02212148FEF7DBFF24E0E9
:1018D000E4B2022C09D101201B49087000F060FB22
:1018E00000211B48FEF7D6FF17E0E4B2042C0ED10E
:1018F00015480078002806D0154800780D49C872B0
:101900000C4801F09FFB16201349087005E0E4B273
:10191000052C02D116201049087006E000200E495F
:10192000087002E000200C49087010BD7F080020FC
:1019300083080020240800203808002087080020A1
:10194000740800203C0800207E0800203D0800208C
:101950007C0800207D0800208008002082080020EC
:10196000012110F01F029140DFF8A42640B2400987
:1019700042F8201070470020DFF898160870002009
:10198000DFF894160870DFF89406006850F008003D
:10199000DFF888160860DFF88406006850F0010060
:1019A000DFF878160860DFF87806006850F00070FD
:1019B000DFF86C160860DFF86C060068DFF8681660
:1019C0000840DFF860160860DFF86006006800096C
:1019D0000001DFF858160860DFF848060068DFF8F5
:1019E00050160843DFF83C160860DFF84006006830
:1019F00050F00800DFF834160860DFF83806006899
:101A000050F4DC70DFF82C1608607047DFF8280609
:101A1000006880F47F4090F0FF00010701D50120AD
:101A200010E0C10601D502200CE0810601D503209B
:101A300008E0C10501D5042004E0000601D5052019
:101A400000E000207047002004E0FF21DFF8EC25D3
:101A50008154401C0628F8D3704780B5DFF8BC05D8
:101A6000006850F00800DFF8B4150860DFF8D00512
:101A7000006850F48040DFF8C8150860DFF8AC0556
:101A800000680003000BDFF8A4150860DFF89C0570
:101A9000006850F03040DFF894150860DFF88C05DE
:101AA000006850F08070DFF884150860DFF87C056E
:101AB000006850F43000DFF8741508604FF4497086
:101AC000DFF8801508602420FFF74AFFDFF874056F
:101AD000006850F04000DFF86C150860DFF83C0546
:101AE000006850F00400DFF834150860DFF858058E
:101AF0000068DFF858150840DFF84C150860DFF87B
:101B00004805006840F201110843DFF83C15086001
:101B10004FF48070DFF8381508604FF48070DFF8FC
:101B2000341508604FF48060DFF82815086001BDA7
:101B3000DFF8240500680006FAD40020DFF81C1541
:101B40000860DFF81C05006850F08000DFF8101511
:101B500008607047DFF80C05DFF800150968085CBD
:101B6000DFF804150860DFF8F4040068401CDFF8B3
:101B7000EC140860DFF8E4040068032807DBDFF8F2
:101B8000E004006830F08000DFF8D414086070478B
:101B900080B5DFF8AC04006850F00200DFF8A01454
:101BA00008604720DFF8C4140860A620DFF8C014DE
:101BB00008600120DFF8BC140860DFF8BC0400688E
:101BC00040084000DFF8B01408601D20FFF7C8FE91
:101BD000DFF8A804006850F00100DFF8A0140860E6
:101BE00001BD0000002001E000BF401C0228FBDB1B
:101BF000704780B5DFF88004006840084000DFF8D7
:101C000078140860DFF878040078002840F0048138
:101C1000DFF870040078002840F0D280DFF8680414
:101C20000088DFF8681491F900100841C00715D545
:101C3000DFF85C040088C12806DBDFF85804807AEE
:101C4000DFF85414087012E0DFF8F003DFF83C14FA
:101C50000978085CDFF84014087008E0DFF8DC035E
:101C6000DFF828140978085CDFF82C140870DFF816
:101C70002C040088DFF8141491F900100841C00703
:101C800007D5DFF81404007810F0FE00DFF8081420
:101C90000870DFF804040078DFF8C8138870DFF8F4
:101CA000E8030088DFF8E4130978C91C0841C0077D
:101CB00016D5DFF8DC030088C12806DBDFF8D40383
:101CC000807ADFF8D413087014E0DFF87003DFF8CF
:101CD000BC1309780818C078DFF8BC13087009E055
:101CE000DFF85803DFF8A41309780818C078DFF884
:101CF000A8130870DFF8A4030088DFF890130978B0
:101D0000C91C0841C00707D5DFF88C03007810F024
:101D1000FE00DFF884130870DFF87C030078DFF83A
:101D2000441348700820DFF8641391F9001008414B
:101D300090F0FF00DFF860130870DFF860030078B0
:101D4000400607D5DFF85003007810F0DF00DFF819
:101D500048130870DFF844030078000607D5DFF861
:101D60003803007810F0EF00DFF82C130870DFF86C
:101D700028030078DFF8EC120870FFF7D9FEDFF8CF
:101D80000C030078401CDFF804130870DFF8FC0235
:101D90000078032803DB0020DFF8F0120870DFF87A
:101DA000F0020088401CDFF8E8120880DFF8E0024B
:101DB0000088B0F5A07F2FDB4020B54908802BE0DC
:101DC000B0480078012817D14FF48070A04908600E
:101DD000FFF708FF4FF480709E490860FFF702FF8D
:101DE000FF20A0498870FF209E494870FF209D4930
:101DF0000870FFF79DFE0FE0A2480078A849097817
:101E0000884209D14FF4807091490860FFF7EAFEDB
:101E10004FF480708F4908609A480078401C9949B7
:101E20000870984800781428C0F2908000209549E6
:101E3000087078480078002803D0022827D00CD3F7
:101E400053E0FFF7E3FD97490870964800780028B3
:101E500002D001206F49087047E0FFF7D7FD914994
:101E6000097889B280B281420DD18E4800786A49E2
:101E70000870A0208C49086090208C4908600220DE
:101E80006449087002E00020624908702DE0FFF705
:101E9000BDFD002803D100205E49087025E082487E
:101EA000006801281CDA814800687F4908607F4883
:101EB000006810387D4908607C4800681E2802DAF6
:101EC0001E207A4908607A4800780121754A92F903
:101ED00000209140084203D0724800784E490870B3
:101EE00071480068401E70490860724800780028F8
:101EF00002D001281DD029E0614800786E49097898
:101F0000884215D06C4800785D4908705C480078BC
:101F100001280DD1FF2053498870FF205149487096
:101F2000FF2050490870FFF703FE01206149087047
:101F30000CE04FF4807046490860FFF753FE4FF401
:101F400080704449086000205A49087001BD80B57E
:101F5000FFF779FDFFF781FDFFF70DFDFFF718FE95
:101F600001BD062802D2C9B2172900D304E0494AAC
:101F7000C9B2895C314A8154704743490988C0B26B
:101F800008434149088070473F490988C0B231EA97
:101F900000003D490880704700203B490880704799
:101FA00000203B49088070473C490988C0B208437B
:101FB0003A490880704739490988C0B231EA0000BF
:101FC000364908807047C0B2122800DB1120801CFF
:101FD0003349087070470120374908707047002066
:101FE0003549087070470C48007800210A4A117082
:101FF000C0B270472E490978012212FA00F0084356
:102000002B4908707047002029490870704700006C
:1020100000E100E0A4080020A208002018100240FF
:1020200004000140000C0140FF0F000F040C0140B0
:10203000008088800C0C0140080C01403008002012
:102040001C1002400038004004080140F0F0FFFF7F
:102050001008014014080140083800406C080020B6
:1020600004380040700800200C380040280400406C
:102070002C0400400C040040100400400004004008
:10208000AA080020A708002078080020A80800203F
:102090007A080020B8460008A90800207608002029
:1020A000C2020020A3080020640800206808002065
:1020B000A5080020AB080020A60800204100090E5A
:1020C0007F3915D4D1F11F0114D4400007D2C001CB
:1020D00040F00040C84048BF6FF000407047C0016A
:1020E00040F00040C8404CBF4FF0004040427047B5
:1020F0000020704700424FF0004058BFC043704777
:10210000012110F01F029140B04A40B2400942F84C
:102110002010704780B5AE48006850F0C050AC4900
:102120000860AC48006850F48070AA49086001203B
:10213000A9490870A948006800042AD40020A649CB
:102140000870A648006850F48030A4490860A3488D
:10215000006830F48030A1490860A048006850F061
:1021600001009E4908600020009002E00098401C99
:1021700000909A480068800724D59848006850F479
:102180008070964908609548006850F40040934973
:1021900008609348006830F0080091490860904852
:1021A00000680007FBD58E4800688006FBD58D4887
:1021B000006850F001008B4908600320FFF7A0FF82
:1021C000002002BD009888498842CFDB8348006820
:1021D00040084000814908600220F2E7834909680D
:1021E000834AB1FBF2F302FB13113C22B1FBF2F381
:1021F00002FB13123C23B1FBF3F182703C22B1FBD2
:10220000F2F302FB13123C23B1FBF3F142700170B5
:10221000704701784FF46162514342783C2303FBDD
:102220000211807841186E4800688006FBD56D4821
:102230000068400840006B4A10606C4801606848C4
:1022400000688006FBD56648006850F01000644ABC
:102250001060634800688006FBD588B2654A10604C
:10226000090C5F4800688006FBD5634801605C4844
:1022700000688006FBD55A48006830F010005849C5
:102280000860574800688006FBD55548006840083C
:10229000400053490860524800688006FBD5514809
:1022A000006850F001004F4908604D480068800602
:1022B000FBD5704751480078002804D000204F49D2
:1022C0000870012000E0002070474D480078002889
:1022D00004D000204A490870012000E00020704727
:1022E00010B401784FF4616243783C24634302FBED
:1022F0000131807840184349086010BC704741495B
:1023000009683B4AB1FBF2F302FB13113C22B1FB1B
:10231000F2F302FB13123C23B1FBF3F182703C2277
:10232000B1FBF2F302FB13123C23B1FBF3F1427059
:1023300001707047344800787047012032490870B6
:1023400070470020304908707047C0B20A2807DA89
:102350000122214B1A702D4A89B2C0B242F82010D6
:102360007047C0B20A2801DB002004E02749C0B250
:1023700051F8200080B2704717480078704718481D
:10238000006840084000164908601B4800680004C7
:102390001849096808431549086001201749087061
:1023A0001948007800280FD01148164909680F4ACB
:1023B00012680E4B1B68B3FBF0F300FB1320814245
:1023C00002D101200E4908707047000000E100E0D2
:1023D0001C100240007000409008002020100240B5
:1023E000042800400028004001E6DF0C48080020D7
:1023F000805101001C280040182800408D08002052
:102400008F0800204C0800208E080020046C00403B
:102410000020002101E0401C491C102907DADFF8E8
:10242000242612EBC102D2F84021002AF3D1C0B217
:10243000704780B501F032F84FF4E0720021DFF808
:10244000040601F058F9FFF7E3FFDFF8FC15087008
:1024500001BDDFF8F40500787047DFF8EC15097866
:10246000C0B2884201D3002006E0DFF8D815C0B220
:1024700011EBC000D0F844017047DFF8D0050078B8
:10248000002801D1012000E00020C0B27047F0B464
:102490000024DFF8B8552D78002D40F01481DFF8C6
:1024A000A455D5F80851DFF8A865E4B246F83450D1
:1024B000DFF89055D5F80C51DFF89465E4B216EBCF
:1024C000C4067560641C002531E0DFF88865C0B281
:1024D000032707FB0066EDB2AE5DFF2E26D0DFF8C6
:1024E0006465DFF87075C0B25FF0030C0CFB007719
:1024F000EDB2EF5D56F83760DFF85475E4B247F897
:102500003460DFF84065DFF84C75C0B25FF0030C53
:102510000CFB0077EDB2EF5D16EBC7067668DFF8CF
:102520003075E4B217EBC4077E60641C6D1CEDB21D
:10253000032DCADB00252FE0DFF81C05C9B20326F6
:1025400006FB0100EDB2285CFF2824D0DFF8F4047C
:10255000DFF80465C9B2032707FB0166EDB2AE5D83
:1025600050F83600DFF8E864E4B246F83400DFF8EB
:10257000D404DFF8E464C9B2032707FB0166EDB2B7
:10258000AE5D10EBC6004068DFF8C464E4B216EB41
:10259000C4067060641C6D1CEDB2032DCCDBD2B29E
:1025A0003C2A79DA0498002813D0DFF89804D0F890
:1025B0003001DFF89C14E4B241F83400DFF8840401
:1025C000D0F83401DFF88814E4B211EBC40148609C
:1025D00012E0DFF87004D0F83801DFF87414E4B2C8
:1025E00041F83400DFF85C04D0F83C01DFF86014F7
:1025F000E4B211EBC4014860641CDBB2002B16D0BE
:10260000D2B2002A13D0DFF83C04D0F81001DFF872
:102610004014E4B241F83400DFF82804D0F8140183
:10262000DFF82C14E4B211EBC4014860641C0025EF
:1026300025E0DFF81004DFF82414D2B2032303FBF3
:102640000211EDB2695C50F83100DFF80414E4B215
:1026500041F83400DFF8EC03DFF80014D2B20323B2
:1026600003FB0211EDB2695C10EBC1004068DFF8BA
:10267000E013E4B211EBC4014860641C6D1CEDB2C0
:10268000032D09DADFF8D403D2B2032101FB0200E3
:10269000EDB2285CFF28CCD1DFF8C4030470002021
:1026A000DFF8C01308700020DFF8BC1308700020AA
:1026B000DFF8B81308700020DFF8B41308700120A9
:1026C000DFF8B0130870F0BC704770B40022DFF878
:1026D0007C331B78002B40F09080DFF86833D3F810
:1026E0000831DFF86C43D2B244F83230DFF85433AB
:1026F000D3F80C31DFF85843D2B214EBC204636054
:10270000521C00232FE0DFF84C43C0B2032505FB29
:102710000044DBB21C5DFF2C24D0DFF82843DFF837
:102720003453C0B2032606FB0055DBB25D5D54F89E
:102730003540DFF81C53D2B245F83240DFF804438D
:10274000DFF81053C0B2032606FB0055DBB25D5D17
:1027500014EBC5046468DFF8F852D2B215EBC20579
:102760006C60521C5B1CDBB2032BCCDB00232DE026
:10277000DFF8E402C9B2032404FB0100DBB2185CF9
:10278000FF2822D0DFF8BC02DFF8CC42C9B2032513
:1027900005FB0144DBB21C5D50F83400DFF8B042A9
:1027A000D2B244F83200A748DFF8AC42C9B20325E0
:1027B00005FB0144DBB21C5D10EBC4004068A44C77
:1027C000D2B214EBC2046060521C5B1CDBB2032B60
:1027D000CEDBA34802700020A24908700020A24965
:1027E00008700020A14908700020A349087000204B
:1027F0009F49087001209F49087070BC704793483A
:102800000078002802D001209849087070478F4A4C
:102810001278002A03D00122974B1A7002E000229E
:10282000954B1A700022914B1A70874A1278C0B2E9
:10283000904200D30020834AC0B212EBC002D2F80B
:102840004021834B1A607F4AC0B212EBC000D0F81F
:1028500044017F4A50608948016000208449087023
:10286000012080490870012082490870704780B5B6
:102870007648007800280DD0022820D015D30428EF
:1028800043D02ED3062800F08E8059D3072800F0BD
:10289000AC80D0E077480078002805D0002075494A
:1028A0000870022069490870CBE000207149087067
:1028B000002071490870022064490870C1E06C482A
:1028C0000078002803D1002000F0C1FD02E00120C3
:1028D00000F0BDFD062000F0ECFB03205B49087012
:1028E000AFE0062000F0D5FB32280DD3002064496C
:1028F00008705C480078002803D004205349087011
:1029000002E00620514908709BE05D4800785B4971
:10291000096888420ED24E4841684D48006800F070
:1029200083FD57480078401C5549087005204749E9
:10293000087004E000F0AAFD00204449087080E01F
:102940004A48007800280AD000204849087000F062
:1029500065FD00F09BFD00203C49087022E04648E0
:10296000007800280AD000204049087000F056FD89
:1029700000F08CFD01203549087013E000F04BFD9C
:1029800000280FD038480078002808D000203649A9
:10299000087000F07BFD00202C49087002E0042044
:1029A0002A4908704DE0364800782D490978884258
:1029B00015D227483249097810EBC10041682448F4
:1029C0002F4A127850F8320000F02EFD2C48007883
:1029D000401C2B49087007201C49087004E000F0D7
:1029E00055FD0020194908702BE020480078002888
:1029F0000AD000201D49087000F010FD00F046FDCF
:102A000000201249087015E01B48007800280AD001
:102A100000201949087000F001FD00F037FD012089
:102A20000A49087006E000F0F6FC002802D00620F3
:102A30000649087005E000200E490870002003498F
:102A4000087001BDD8050020980800209A080020D1
:102A50009807002010010020580100200C020020DF
:102A6000990800209C0800209D0800209E08002056
:102A7000A00800209B0800209F080020600800207C
:102A8000A1080020DFF8D814DFF8D8241278C0B2EB
:102A90005040405CDFF8CC140870DFF8C8040078C0
:102AA0007047DFF8C404006850F00C00DFF8B81479
:102AB00008607047DFF8B004006830F00C00DFF801
:102AC000A8140860704780B2DFF8A014086070474F
:102AD000DFF89C04006830F0F00050F0E000DFF810
:102AE000901408607047DFF88804006830F0F00048
:102AF00050F04000DFF8781408607047DFF8740485
:102B0000006830F0706050F06060DFF868140860B2
:102B10007047DFF86004006830F0706050F080604B
:102B2000DFF8501408607047DFF84C04006850F478
:102B30008040DFF844140860DFF83C04006830F49B
:102B40008040DFF8341408604FF40050DFF81814A8
:102B500008600020DFF8241408600820DFF8201443
:102B60000860704780B5C0B200280ED0FFF7BBFFE9
:102B7000DFF81004006850F00400DFF80814086063
:102B8000FFF7BCFFFFF7D0FF0DE0FFF7C2FFDFF854
:102B9000F403006830F00400DFF8E8130860FFF782
:102BA00097FFFFF7C1FF01BD80B5DFF8DC030068C8
:102BB00050F00C00DFF8D0130860DFF8CC03006899
:102BC00050F48040DFF8C0130860DFF8BC030068F1
:102BD00050F00100DFF8B0130860FFF784FFFFF743
:102BE00098FF01BDC0B2DFF8A41308607047DFF89A
:102BF0009C030068C0B27047DFF894030068400689
:102C000001D5012000E000207047DFF88403006850
:102C100030F04000DFF8781308607047DFF8700389
:102C2000006830F02000DFF8681308607047DFF8B4
:102C300060030068800601D5012000E00020704795
:102C400010B541F64C50FFF73EFFFFF7DEFFF020D6
:102C5000FFF7C8FFFFF7D0FF0028FBD0FFF7C7FF43
:102C6000040040F27120FFF72EFFE4B2F02C01D0F7
:102C7000012000E0002010BD80B5FFF7CFFFFF204E
:102C8000FFF7B0FFFFF7D3FF0028FBD0FFF7AFFF40
:102C9000C0B2FF2801D1012000E00020C0B202BD77
:102CA00038B50400002509E00020FFF79BFFE4B2DF
:102CB0006408FFF7BCFF0028FBD06D1C082D07DA65
:102CC000FFF7ACFFE007EFD5FF20FFF78BFFEEE744
:102CD000002032BD80B5FFF7B3FFC0B2002801D19C
:102CE000002006E0CC20FFF7DBFF4420FFF7D8FFF1
:102CF000012002BDFEB50400FFF7A2FFC0B200280C
:102D000001D100203FE0CC20FFF7CAFFBE20FFF733
:102D1000C7FF00250CE068462F5CFFF7ADFFB04011
:102D2000C01969466854761CF6B2082EF3DB6D1C98
:102D3000092D04DA0020694668540026F4E70020D3
:102D400088490870002504E06846285CFFF79AFE71
:102D50006D1C092DF8DB83480078002801D0002085
:102D600011E09DF800009DF8011050EA012000F0EC
:102D700015FD00F02BFD0022864B00F04FFD00F00A
:102D800079FE20600120FEBD80B5FFF70DFF002019
:102D90008149087080480078401C804908700020F4
:102DA0007F49087000207F49087000207E49087024
:102DB00000207E49087001BD80B5784800787649CA
:102DC0000978884201D0012000E00020724909788A
:102DD000724A117070490978002908D0022920D060
:102DE00009D3042956D03FD3052976D086E00120A7
:102DF0006949087085E0C0B2002809D0FFF75AFE83
:102E00000020FFF7AFFEFFF74CFE002000F051F965
:102E1000002000F03EF9322802D302205E490870FB
:102E20006FE0C0B2002806D0FFF754FF5D4908707C
:102E3000002000F03EF95B480078002810D0002008
:102E400000F027F9C8280ED35948FFF753FF55491A
:102E5000087001205249087003204F49087002E0B1
:102E600003204D4908704CE0C0B2002809D0FFF79C
:102E700021FE0120FFF776FEFFF713FE002000F091
:102E800018F9002000F005F9322802D30420424945
:102E9000087036E0C0B2002806D0FFF71BFF434998
:102EA0000870002000F005F940480078002810D094
:102EB000002000F0EEF8C8280ED33E48FFF71AFFB6
:102EC0003A490870012038490870052032490870D5
:102ED00002E005203049087013E0C0B2002802D09B
:102EE000002000F0E6F8002000F0D3F840F6B831FA
:102EF000884202D300202849087002E000202649B9
:102F0000087001BD002802D12948006801E0294865
:102F100000687047002811D122480078002802D1AB
:102F20005FF0FF301BE01E480078012804D100202C
:102F30001B490870012012E0002010E01B480078B7
:102F4000002802D15FF0FF3009E01748007801281F
:102F500004D1002014490870012000E000207047CF
:102F600010000020970800200C380140083801406C
:102F700004080140000C01400C10024010380140D0
:102F80001438014004000140181002400438014088
:102F900000380140000030409108002092080020D5
:102FA000940800209308002096080020950800202F
:102FB00054080020580800200C48006850F0080011
:102FC0000A4908600A48006830F47020084908601F
:102FD0000748006850F4002005490860054800686B
:102FE00050F48050034908607047000018100240F8
:102FF000040C01400C0C01400120704738B504005E
:10300000FFF7BAF900280DD10D48002106E0C9B23A
:1030100030F81120C9B224F81120491CC9B2062980
:10302000F5D30CE0002507E02800C0B2FFF799F9BE
:10303000EDB224F815006D1CEDB2062DF4D331BDB0
:103040000400002038B50400002507E0EDB234F894
:1030500015102800C0B2FFF778F96D1CEDB2062DEF
:10306000F4D331BD2848294908602948006850F048
:10307000030027490860704780B5002004E0002164
:10308000244A42F82010401C0728F8D3FFF7EAFF33
:1030900001BD1F49096831F002011D4A11601D4937
:1030A00051F820001A49096851F00201184A1160CC
:1030B00070471749096831F00201154A1160002173
:1030C000144A42F820101248006850F002001049DB
:1030D000086070470020104908600FE00D480E4955
:1030E000096850F82100401C0A490B4A126841F84F
:1030F000220009480068401C07490860064800682B
:103100000728EBD3704700008F5F010014E000E058
:1031100010E000E0F80700205C08002000206A4969
:103120000870002004E00021684A22F81010401CBA
:103130000828F8DB70476549634A127821F81200C5
:1031400061480078401C604908705F480078082892
:1031500002DB00205C49087070470020002104E079
:103160005A4A32F811201018491C0829F8DBC00807
:1031700080B270475648006850F004005449086017
:103180005348006850F40070514908605148006885
:1031900030F470204F4908604F48006850F44040B8
:1031A0004D49086004204D49086000204C490860E2
:1031B0004C48006850F001004A490860002000E0D7
:1031C000401C49498842FBDB4648006850F0040037
:1031D00044490860434800684007FBD4704780B505
:1031E00080B2FFF7A8FFFFF7B8FFB0F5167F03D84E
:1031F00002203E49087030E0B0F52F7140F61D42C4
:10320000914203D201203949087026E0A0F63C71B2
:10321000C42903D20020354908701EE0A0F25921CC
:1032200063290BD231490978022907D02F4909783F
:10323000012903D002202D4908700EE0A0F6D960C4
:1032400063280AD229480078012806D02748007848
:10325000002802D001202549087001BD80B5FFF784
:1032600089FF002022490870002020490870FFF7DC
:1032700055FF01BD80B51E480078002802D0012806
:103280000DD01AE00520FFF714FF1648006850F033
:1032900001001449086001201549087010E005205C
:1032A000FFF7F7FE0A2807D31248006880B2FFF73D
:1032B00096FF00200E49087002E000200C490870BB
:1032C00001BD0A48007870478808002014080020D3
:1032D000181002400008014004100240342401404C
:1032E0002C24014008240140A08601008A08002007
:1032F000890800204C240140012110F01F02914058
:103300007F4A40B2400942F8201070477D4800686B
:1033100050F008007B4908607B48006830F0F000FE
:10332000794908607848006850F0100076490860D4
:1033300070475FF08040006850F001005FF080410E
:10334000086070475FF080400068400840005FF010
:1033500080410860704780B56A48006850F00400FA
:10336000684908606948006850F0010067490860D2
:1033700067480068000A0002654908606448006800
:1033800050F00900624908606148006850F0900000
:103390005F490860FF205F49086011205E490860AE
:1033A00046F668005D4908605FF08040006850F0B4
:1033B00080005FF080410860FFF7C4FF01BD80B569
:1033C0005048006850F400604E49086040F6C14023
:1033D000534908605348006840084000514908605C
:1033E0005148006850F001004F4908601920FFF76C
:1033F00083FF01BD4D48006850F001004B49086053
:1034000070474A4800684008400048490860012069
:1034100047490870704746480078704780B5FFF705
:10342000F0FF00F0A8F901BD10B50C000021404AE2
:10343000117000F074F93F48046000203E490860B4
:1034400000F0A6F93D490870FFF7D4FF10BD10B594
:103450000400FFF76EFFE4B2002C09D13848394967
:1034600008607F203649086000203749086008E07E
:103470003548344908600020314908607F203249CE
:1034800008604FF400703149086010BD80B54FF4FA
:1034900000702F490860FFF755FF01BD80B500F0AF
:1034A0006CF8FFF758FFFFF78AFF012020490870EA
:1034B000FFF72CFF4FF400702549086001BD80B56F
:1034C0001848006840084000164908601B4800780A
:1034D0001C490968086000F05BF918490870164833
:1034E0000068401C144908601348006811490968C5
:1034F000884203D3FFF785FF00F03DF901BD0000CE
:1035000000E100E018100240040C01401C100240D1
:10351000000801402C00004020000040180000403E
:103520002C2C0140102C01400C2C0140002C01409F
:103530008B08002040080020440800208C08002050
:10354000340000400000002038000040140C01400E
:10355000100C01408A48006850F008008849086053
:1035600088480068000900018649086085480068AD
:1035700050F0030083490860704780B500F0CCFA32
:10358000FFF7E8FF01BD38B50C0001217E4A11604C
:1035900001217E4A1160C0B2012803D1842000F0CD
:1035A000FFFA02E0872000F0FBFA002000F0F8FAB2
:1035B000002000F0F5FA002000F0F2FA002505E006
:1035C000ADB2285D80B200F0EBFA6D1CADB2B5F57E
:1035D000047FF5DB01206C49086031BD38B50C0073
:1035E0000121694A11600121684A1160C0B20128B5
:1035F00003D1D12000F0D4FA02E0D32000F0D0FAB9
:10360000002000F0CDFA002000F0CAFA002000F0FF
:10361000C7FA002505E0002000F0C2FAADB2285537
:103620006D1CADB2B5F5047FF5DB0120564908608D
:1036300031BD10B50C000121534A11600121534ADC
:103640001160C0B2012803D1832000F0A9FA02E082
:10365000862000F0A5FAA402200CC0B280B200F0CF
:103660009FFA200AC0B280B200F09AFAE4B22000B9
:1036700080B200F095FA01204349086010BD10B5F2
:103680000C000121404A11600121404A1160C0B282
:10369000012803D1532000F083FA02E0552000F006
:1036A0007FFAA402200CC0B280B200F079FA200A9E
:1036B000C0B280B200F074FAE4B2200080B200F030
:1036C0006FFA01203049086010BD80B501202E49F5
:1036D000086001202D490860D72000F061FA002021
:1036E00000F05EFA0121284A1160000601D5012090
:1036F00000E0002002BD70B504000800150000F0D5
:103700000EF8002604E000F043F8B6B23055761CFF
:10371000B6B2ADB2AE42F6D300F02DF870BD38B5FA
:10372000040001201849086001201849086003209E
:1037300000F036FA4FF40470B4FBF0F24FF404706A
:10374000B4FBF0F100FB1144100080B280092100AD
:1037500089B2090A51EA8205C0B280B200F020FAAB
:10376000EDB2280080B200F01BFAE4B2200080B273
:1037700000F016FA31BD01200349086070470000CF
:1037800018100240000C0140100C0140140C0140C4
:1037900080B5002000F004FAC0B202BD002840F15C
:1037A0000780F446404200F003F850F000406047C4
:1037B0000AD0B0FA80F18840D1F19D01C905020616
:1037C00072F1004241EB1020704700005FF0FF0CE7
:1037D0001CEAD05114BF614506E0C110400721F03A
:1037E000E04101F16051704779B900F000410002F9
:1037F0000AD0B0FA80FC00FA0CF001F16051A1EBA4
:103800000C5101EBD0214005704741020CBF40F440
:10381000E0016FF000010020704700002DE9F04149
:1038200040F2FF7581EA030C0CF0004C15EA1154CC
:103830001DBF15EA1357AC42AF42E9E0BC41C1F3EA
:103840001301C3F31303801A994143F4801304D284
:10385000641E4000494180185941C90241EA505153
:10386000B1FBF3F603FB1611A2FB0675D7EBC020E4
:10387000A94102D2761E80185941C90241EA50512D
:10388000B1FBF3FE03FB1E11A2FB0E75D7EBC020AC
:10389000A94103D2AEF1010E80185941890241EAD3
:1038A0009051760546EA8E2EB1FBF3F603FB161116
:1038B000A2FB0675D7EB8020A94102D2761E8018A4
:1038C0005941C90241EA50514EEA060EB1FBF3F6E6
:1038D00003FB1611A2FB0675D7EBC020A94102D24B
:1038E000761E80185941C90241EA5051B1FBF3F7E5
:1038F00003FB1711A2FB0735D3EBC020A94167F1E9
:1039000000070CBF004247F0010766F3D5274FEAD6
:103910001E31B80814F5806414DDBD0775F100424E
:1039200050EB0E5051EB045111F5801F5CBF41EA82
:103930000C01BDE8F0814CF07F6141F0E0410020D6
:10394000BDE8F081BD076D0840EA0E5041F48011DA
:10395000D4F10104B4F120060ADAC4F12006020011
:10396000E04001FA06F3E1401843B24015430EE08F
:10397000342C14DCC6F1200445EA40056D0820FA19
:1039800006F2154321FA06F0A1400D43002175F11E
:10399000004250F1000051EB0C01BDE8F081002025
:1039A0005FEA0C01BDE8F081CFB992185B41B3FA30
:1039B00083F704BFB2FA82F6BF190B3FB7F12006B6
:1039C0002FBF02FA06F3BB40C7F1200622FA06F623
:1039D00038BF3343BA401CB1E419641E2FE77F425D
:1039E00031F00041B1FA81F404BFB0FA80F6A419B5
:1039F0000B3CB4F120062FBF00FA06F1A140C4F140
:103A0000200620FA06F638BF3143A0403C1B16E7DB
:103A1000AC421ABF05EA1357AF4214E050EA410620
:103A20001CBF52EA4306BFE750EA410730466146F1
:103A30001CBF41EA0551BDE8F08152EA430C08BFC2
:103A4000C143BDE8F08100204FF4001616EB410F92
:103A500098BF16EB430F08BF16EB410F24BFC143BD
:103A600005E016EB430F0CBF61464CEA0551BDE87B
:103A7000F08100004FEAF17CBCF1E04C2CBFBCF5BA
:103A8000001F11E05FEA4C0C34BFBCF17F5F2EE0F9
:103A90005FEA9C0C4FEA0C1C4FEA3C0CC10071F130
:103AA00000414CEB50707047C90241EA5051C002CE
:103AB00018BF41F0010141F000414FEA6C50C0F1E4
:103AC0000900212810D240EACC7CCCF1200C11FA5C
:103AD0000CF070F10040CCF1200C21FA0CF00CF04D
:103AE000004C40EB0C0070474FEACC707047490027
:103AF00011F5001F04D84FEACC10FF30C005704705
:103B0000C8177047012110F01F029140344A40B29B
:103B1000400942F82010704780B53248006840F4F0
:103B2000805050F004002F4908602F48006850F082
:103B300001002D4908602D4800680003000B2B4947
:103B400008602A48006850F4300028490860274877
:103B5000006850F08060254908602448006850F0F3
:103B60003040224908604FF44370214908602148E1
:103B7000006850F002001F4908601E48006850F0BD
:103B800001001C49086030201B4908600C20FFF729
:103B9000B9FF1748006850F040001549086001BDA2
:103BA0001649096880B21549086015480068C007C1
:103BB000FBD51248006880B2704780B530200E49AE
:103BC000086010480068002802D00E48006880474E
:103BD0000D480068400840000B49086001BD000026
:103BE00000E100E0181002401410024000080140FB
:103BF0000030014004300140040002400C3001401C
:103C000008300140500800201C00024034000040F1
:103C1000071601000700000000000000005EBCE283
:103C2000613FDD83C29C7E20A3FD1F419DC3217F98
:103C3000FCA2401E5F01E3BD3E6082DC237D9FC18C
:103C4000421CFEA0E1BF5D0380DE3C62BEE0025C80
:103C5000DF81633D7C22C09E1D43A1FF4618FAA46C
:103C600027799BC584DA3866E5BB5907DB85673958
:103C7000BAE406581947A5FB7826C49A653BD9874C
:103C8000045AB8E6A7F91B45C6987A24F8A6441A40
:103C900099C7257B3A6486D85B05E7B98CD2306E2C
:103CA000EDB3510F4E10F2AC2F7193CD114FADF318
:103CB000702ECC92D38D6F31B2EC0E50AFF1134D0C
:103CC000CE90722C6D33D18F0C52B0EE326C8ED000
:103CD000530DEFB1F0AE4C1291CF2D73CA947628EC
:103CE000ABF517490856B4EA6937D58B5709EBB5D8
:103CF00036688AD495CB2977F4AA4816E9B7550BCC
:103D000088D6346A2B7597C94A14F6A8742AC896BF
:103D1000154BA9F7B6E80A54D7896B3500FF1C018B
:103D2000FF1B03FF1D05FF1D06FF1D07FF1C08FFEE
:103D30001C09FF1C0AFF1C0BFF1C0CFF1C0DFF1CA9
:103D40000EFF1C0FFF1C10FF1C11FF1C12FF1C1389
:103D5000FF1C14FF1C15FF1C16FF1C16011B16036D
:103D60001D16051D1AFFFF02FF1F04FF2005FF207F
:103D700006FF2007FF1E08FF1E09FF1E0AFF1E0B7D
:103D8000FF1E0CFF1E0DFF1E0EFF1E0FFF1E10FF5D
:103D90001E11FF1E12FF1E13FF1E14FF1E15FF1E15
:103DA00016FF1E16021F16042016052016062016E2
:103DB000071E16081E16091E160A1E160B1E17FFD2
:103DC0001E17021F17042017052017062017071EAD
:103DD00017081E17091E170A1E170B1E18FF1E189C
:103DE000021F18042018052018062018071E18089E
:103DF0001E18091E180A1E180B1E19FF1E19021F75
:103E000019042019052019062019071E19081E1962
:103E1000091E190A1E190B1E0025FF0123FF03248A
:103E2000FF0524FF0624FF0725FF0825FF0925FFBE
:103E30000A25FF0B25FF0C25FF0D25FF0E25FF0F83
:103E400025FF1025FF1125FF1225FF1325FF14253F
:103E5000FF1525FF1625FF1601231603241605243A
:103E6000160624160725160825160925160A2516EE
:103E70000B251725FF170123170324170524170601
:103E800024170725170825170925170A25170B25B5
:103E90001825FF18012318032418052418062418D0
:103EA0000725180825180925180A25180B2519258E
:103EB000FF190123190324190524190624190725BC
:103EC000190825190925190A25190B2511010900B9
:103ED0000000C1C081C1400101C3C003800241C2D2
:103EE00001C6C006800741C70005C1C581C44004A2
:103EF00001CCC00C800D41CD000FC1CF81CE400E52
:103F0000000AC1CA81CB400B01C9C009800841C861
:103F100001D8C018801941D9001BC1DB81DA401AD1
:103F2000001EC1DE81DF401F01DDC01D801C41DCA1
:103F30000014C1D481D5401501D7C017801641D6D1
:103F400001D2C012801341D30011C1D181D04010E1
:103F500001F0C030803141F10033C1F381F24032D1
:103F60000036C1F681F7403701F5C035803441F4A1
:103F7000003CC1FC81FD403D01FFC03F803E41FE51
:103F800001FAC03A803B41FB0039C1F981F8403861
:103F90000028C1E881E9402901EBC02B802A41EAD1
:103FA00001EEC02E802F41EF002DC1ED81EC402CA1
:103FB00001E4C024802541E50027C1E781E64026D1
:103FC0000022C1E281E3402301E1C021802041E0E1
:103FD00001A0C060806141A10063C1A381A24062D1
:103FE0000066C1A681A7406701A5C065806441A4A1
:103FF000006CC1AC81AD406D01AFC06F806E41AE51
:1040000001AAC06A806B41AB0069C1A981A8406860
:104010000078C1B881B9407901BBC07B807A41BAD0
:1040200001BEC07E807F41BF007DC1BD81BC407CA0
:1040300001B4C074807541B50077C1B781B64076D0
:104040000072C1B281B3407301B1C071807041B0E0
:104050000050C190819140510193C05380524192D0
:104060000196C056805741970055C19581944054A0
:10407000019CC05C805D419D005FC19F819E405E50
:10408000005AC19A819B405B0199C0598058419860
:104090000188C04880494189004BC18B818A404AD0
:1040A000004EC18E818F404F018DC04D804C418CA0
:1040B0000044C184818540450187C04780464186D0
:1040C0000182C042804341830041C18181804040E0
:1040D00038B5002400F0D2F8FFF74FFA312000F095
:1040E000FAF81AE0002400F0FEF80500EDB22C43C7
:1040F00000F0F9F80500EDB254EA052400F0F3F8F9
:104100000500EDB254EA054400F0EDF80500EDB20B
:1041100054EA0564012000F0DEF800F0E4F8050040
:10412000EDB2012D00F08780022D00F08B80032D71
:1041300000F08F800C2DD5D00D2D2AD00E2D04D05F
:104140000F2D42D0142D45D08DE0002505E000F064
:10415000CAF84749ADB268546D1CADB2B5F5047FDD
:10416000F5DB00F0C0F8050000F0BDF8EDB255EA4F
:1041700000254FF404713E4800F0CEF8ADB2854200
:1041800003D1012000F0A7F802E0032000F0A3F81B
:10419000C3E70025ADB2082D13DAFFF796FA002821
:1041A000FBD033490120FFF7EEF9FFF78EFA002824
:1041B000FBD021000120FFF73CFA641C012000F035
:1041C0008AF8032000F087F8A7E70024012000F018
:1041D00082F8A2E700F087F8050000F084F8EDB25D
:1041E000C0B250EA05210120FFF749FAFFF76DFA46
:1041F0000028FBD01E490120FFF7F0F9002505E05B
:104200001B48ADB2285C00F066F86D1CADB2B5F588
:10421000047FF5DB4FF40471154800F07DF80500CC
:10422000280080B2000AC0B200F055F82800C0B2E1
:1042300000F051F871E701200E490860012000F0FC
:104240004AF86AE701200C490860012000F043F8B1
:1042500063E700F048F8C0B280B2FFF7A1FCC0B23B
:1042600000F039F859E7022000F035F855E7000072
:10427000C8030020140C0140100C01401E480068C7
:1042800050F004001C4908601C48006850F40030DD
:104290001A4908601A48006830F47F4018490860DD
:1042A0001748006850F41060154908601448006809
:1042B00050F40040124908601248006850F00800AD
:1042C0001049086040F253700F49086042F20C0038
:1042D0000E49086070470E4909680906FBD5C0B24F
:1042E0000C49086070470A4800688006FBD50948F9
:1042F0000068C0B270470000181002401C10024055
:10430000000801400C080140084400400C440040F3
:10431000004400400444004030B44FF6FF720BE00C
:1043200013009BB2094C92B2D2B205786A4034F8BD
:10433000122092EA1322401C0B00591E9BB2002B44
:10434000EED1100080B230BC704700BFD03E0008F4
:1043500010B500F01FF8040000F090F8002C01D018
:1043600000F088F8FDF7F3FDFDF7D4FEFEF784FEBC
:10437000FCF7AFFBFEF75DF8FEF706FDFEF76EFFFC
:10438000FCF7F4FBFEF773FAFEF716FDFEF772FF7B
:1043900030BFF5E72E48006850F008002C4908604F
:1043A0002B48006850F0010029490860294800683E
:1043B00050F00070274908602748006827490840E6
:1043C0002549086026480068000900012449086062
:1043D00021480068234908431F49086020480068B5
:1043E00050F008001E4908601F48006850F4DC7057
:1043F0001D490860002001E000BF401C42F210711E
:104400008842F9DB1948006880F47F4090F0FF0093
:104410001749096851F00901154A116014490968E2
:1044200031F00901124A11600949096831F00801A7
:10443000074A11600649096849084900044A1160A1
:1044400010F4DC70902801D1012000E000207047BA
:104450001810024004000140000C0140FF0F000F43
:10446000040C0140008088800C0C0140080C0140C5
:104470000C10024080B5FFF72BFEFEE781B03248FA
:10448000006850F48030304908600020009002E05D
:104490000098401C00902C48006880030ED52B48E3
:1044A000006850F4E810294908602748006850F077
:1044B000807025490860002000900EE00098B0F55B
:1044C000805FE5DD2048006830F480301E490860D8
:1044D000012025E00098401C00901B4800688001E6
:1044E00020D51B48006850F00200194908601748A1
:1044F000006850F48060154908601448006850F066
:104500000200124908601148006810F00C000828E9
:10451000F9D10D480068400840000B4908600020B0
:1045200001B070470098B0F5805FD3DD06480068A1
:1045300030F48030044908600348006830F080702F
:10454000014908600220EBE700100240041002401D
:10455000002002401348006850F001001149086033
:1045600011480068114908400F4908600D4800686B
:104570000F4908400B4908600A48006830F4802061
:10458000084908600848006830F4FE0006490860E1
:104590005FF41F00074908605FF00060064908608B
:1045A0007047000000100240041002400000FFF8B5
:1045B000FFFFF6FE0810024008ED00E019E050F899
:1045C000041BCB0744BFA9F101035918121F002394
:1045D000042A41F8043BF9D25FEA827C0B4604D5F9
:1045E0004FF0000CA1F800C09B1CD10744BF002174
:1045F000197050F8042B002AE1D1704710B450F81C
:10460000041B79B10268436812180830DC0744BF04
:10461000A9F10104E31852F8044B43F8044B091FB5
:10462000F9D1ECE710BC704710B50749794418314F
:10463000064C7C44163404E00A68081D511888476B
:104640000146A142F8D110BD08000000280000007A
:104650006DFFFFFFE4040000C8030020000000001D
:104660009DFFFFFFC4020000A4F5FFFF0000002033
:104670000000000000F00BF8002801D0FFF7D4FF85
:104680000020C046C046FFF763FE00F002F801209C
:10469000704700F001B800000746384600F002F805
:1046A000FBE7000080B5C046C046024A1100182052
:1046B000ABBEFBE726000200819F490D1725218F25
:1046C0000105FF7FF9E74703E1B971393119F300BB
:1046D000014880470148004755450008E146000869
:1046E000C046C046C046C046FFF7C4FFFFF7FEBF46
:1046F000FFF7FEBFFFF7FEBFFFF7FEBFFFF7FEBFEE
:10470000FFF7FEBFFFF7FEBFFFF7FEBFFFF7FEBFDD
:10471000FFF7FEBFFFF7FEBFFFF7FEBFFFF7FEBFCD
:10472000FFF7FEBFFFF7FEBFFFF7FEBFFFF7FEBFBD
:10473000FFF7FEBFFFF7FEBFFFF7FEBFFFF7FEBFAD
:10474000FFF7FEBFFFF7FEBFFFF7FEBFFFF7FEBF9D
:10475000FFF7FEBFFFF7FEBFFFF7FEBFFFF7FEBF8D
:10476000FFF7FEBFFFF7FEBFFFF7FEBFFFF7FEBF7D
:10477000FFF7FEBFFFF7FEBFFFF7FEBFFFF7FEBF6D
:10478000FFF7FEBFFFF7FEBFFFF7FEBFFFF7FEBF5D
:10479000FFF7FEBFFFF7FEBFFFF7FEBFFFF7FEBF4D
:0447A000FFF7FEBF62
:04000005080046E1C8
:00000001FF
